{
  "contractName": "Lottery",
  "abi": [
    {
      "constant": true,
      "inputs": [],
      "name": "owner",
      "outputs": [
        {
          "name": "",
          "type": "address"
        }
      ],
      "payable": false,
      "stateMutability": "view",
      "type": "function"
    },
    {
      "inputs": [],
      "payable": false,
      "stateMutability": "nonpayable",
      "type": "constructor"
    },
    {
      "anonymous": false,
      "inputs": [
        {
          "indexed": false,
          "name": "",
          "type": "uint256"
        },
        {
          "indexed": false,
          "name": "bettor",
          "type": "address"
        },
        {
          "indexed": false,
          "name": "amount",
          "type": "uint256"
        },
        {
          "indexed": false,
          "name": "challenges",
          "type": "bytes1"
        },
        {
          "indexed": false,
          "name": "answerBlockNumber",
          "type": "uint256"
        }
      ],
      "name": "BET",
      "type": "event"
    },
    {
      "constant": true,
      "inputs": [],
      "name": "getSomeValue",
      "outputs": [
        {
          "name": "value",
          "type": "uint256"
        }
      ],
      "payable": false,
      "stateMutability": "pure",
      "type": "function"
    },
    {
      "constant": true,
      "inputs": [],
      "name": "getPot",
      "outputs": [
        {
          "name": "pot",
          "type": "uint256"
        }
      ],
      "payable": false,
      "stateMutability": "view",
      "type": "function"
    },
    {
      "constant": false,
      "inputs": [
        {
          "name": "challenges",
          "type": "bytes1"
        }
      ],
      "name": "bet",
      "outputs": [
        {
          "name": "result",
          "type": "bool"
        }
      ],
      "payable": true,
      "stateMutability": "payable",
      "type": "function"
    },
    {
      "constant": true,
      "inputs": [
        {
          "name": "index",
          "type": "uint256"
        }
      ],
      "name": "getBetInfo",
      "outputs": [
        {
          "name": "answerBlockNumber",
          "type": "uint256"
        },
        {
          "name": "bettor",
          "type": "address"
        },
        {
          "name": "challenges",
          "type": "bytes1"
        }
      ],
      "payable": false,
      "stateMutability": "view",
      "type": "function"
    },
    {
      "constant": false,
      "inputs": [
        {
          "name": "challenges",
          "type": "bytes1"
        }
      ],
      "name": "pushBet",
      "outputs": [
        {
          "name": "",
          "type": "bool"
        }
      ],
      "payable": false,
      "stateMutability": "nonpayable",
      "type": "function"
    },
    {
      "constant": false,
      "inputs": [
        {
          "name": "index",
          "type": "uint256"
        }
      ],
      "name": "popBet",
      "outputs": [
        {
          "name": "",
          "type": "bool"
        }
      ],
      "payable": false,
      "stateMutability": "nonpayable",
      "type": "function"
    }
  ],
  "bytecode": "0x608060405234801561001057600080fd5b5033600360006101000a81548173ffffffffffffffffffffffffffffffffffffffff021916908373ffffffffffffffffffffffffffffffffffffffff1602179055506108af806100616000396000f3fe608060405260043610610083576000357c0100000000000000000000000000000000000000000000000000000000900463ffffffff1680630328209614610088578063403c9fa8146100fd57806379141f80146101285780638da5cb5b146101f5578063a40674b71461024c578063d04c9a8c14610277578063f4b46f5b146102ca575b600080fd5b34801561009457600080fd5b506100e3600480360360208110156100ab57600080fd5b8101908080357effffffffffffffffffffffffffffffffffffffffffffffffffffffffffffff19169060200190929190505050610332565b604051808215151515815260200191505060405180910390f35b34801561010957600080fd5b50610112610494565b6040518082815260200191505060405180910390f35b34801561013457600080fd5b506101616004803603602081101561014b57600080fd5b810190808035906020019092919050505061049e565b604051808481526020018373ffffffffffffffffffffffffffffffffffffffff1673ffffffffffffffffffffffffffffffffffffffff168152602001827effffffffffffffffffffffffffffffffffffffffffffffffffffffffffffff19167effffffffffffffffffffffffffffffffffffffffffffffffffffffffffffff19168152602001935050505060405180910390f35b34801561020157600080fd5b5061020a6105c2565b604051808273ffffffffffffffffffffffffffffffffffffffff1673ffffffffffffffffffffffffffffffffffffffff16815260200191505060405180910390f35b34801561025857600080fd5b506102616105e8565b6040518082815260200191505060405180910390f35b34801561028357600080fd5b506102b06004803603602081101561029a57600080fd5b81019080803590602001909291905050506105f1565b604051808215151515815260200191505060405180910390f35b610318600480360360208110156102e057600080fd5b8101908080357effffffffffffffffffffffffffffffffffffffffffffffffffffffffffffff19169060200190929190505050610654565b604051808215151515815260200191505060405180910390f35b600061033c610829565b33816020019073ffffffffffffffffffffffffffffffffffffffff16908173ffffffffffffffffffffffffffffffffffffffff1681525050438160000181815250508281604001907effffffffffffffffffffffffffffffffffffffffffffffffffffffffffffff191690817effffffffffffffffffffffffffffffffffffffffffffffffffffffffffffff1916815250508060008060025481526020019081526020016000206000820151816000015560208201518160010160006101000a81548173ffffffffffffffffffffffffffffffffffffffff021916908373ffffffffffffffffffffffffffffffffffffffff16021790555060408201518160010160146101000a81548160ff02191690837f0100000000000000000000000000000000000000000000000000000000000000900402179055509050506002600081548092919060010191905055506001915050919050565b6000600454905090565b60008060006104ab610829565b60008086815260200190815260200160002060606040519081016040529081600082015481526020016001820160009054906101000a900473ffffffffffffffffffffffffffffffffffffffff1673ffffffffffffffffffffffffffffffffffffffff1673ffffffffffffffffffffffffffffffffffffffff1681526020016001820160149054906101000a90047f0100000000000000000000000000000000000000000000000000000000000000027effffffffffffffffffffffffffffffffffffffffffffffffffffffffffffff19167effffffffffffffffffffffffffffffffffffffffffffffffffffffffffffff1916815250509050806000015193508060200151925080604001519150509193909250565b600360009054906101000a900473ffffffffffffffffffffffffffffffffffffffff1681565b60006005905090565b60008060008381526020019081526020016000206000808201600090556001820160006101000a81549073ffffffffffffffffffffffffffffffffffffffff02191690556001820160146101000a81549060ff0219169055505060019050919050565b60006611c37937e08000341415156106d4576040517f08c379a000000000000000000000000000000000000000000000000000000000815260040180806020018281038252600e8152602001807f4e6f7420656e6f7567682045544800000000000000000000000000000000000081525060200191505060405180910390fd5b6106dd82610332565b1515610751576040517f08c379a000000000000000000000000000000000000000000000000000000000815260040180806020018281038252601a8152602001807f4661696c20746f206164642061206e65772042657420496e666f00000000000081525060200191505060405180910390fd5b7f100791de9f40bf2d56ffa6dc5597d2fd0b2703ea70bc7548cd74c04f5d215ab760016002540333348560034301604051808681526020018573ffffffffffffffffffffffffffffffffffffffff1673ffffffffffffffffffffffffffffffffffffffff168152602001848152602001837effffffffffffffffffffffffffffffffffffffffffffffffffffffffffffff19167effffffffffffffffffffffffffffffffffffffffffffffffffffffffffffff191681526020018281526020019550505050505060405180910390a160019050919050565b60606040519081016040528060008152602001600073ffffffffffffffffffffffffffffffffffffffff16815260200160007effffffffffffffffffffffffffffffffffffffffffffffffffffffffffffff19168152509056fea165627a7a7230582061702758572ceb67990c420a3bc3cc663661c71d47e8ed781389d7b1038643080029",
  "source": "// SPDX-License-Identifier: MIT\r\npragma solidity ^0.5.0;\r\n\r\ncontract Lottery {\r\n    struct BetInfo {\r\n        // 맞춰야 하는 블록의 넘버\r\n        uint256 answerBlockNumber;\r\n        // 참여자의 주소\r\n        // 특정 주소로 돈을 보내기 위해서는 payable 이라는 키워드가 반드시 필요\r\n        address payable bettor;\r\n        // 맞춰야 할 값 0xab\r\n        bytes1 challenges; \r\n    }\r\n\r\n    mapping (uint256 => BetInfo) private _bets; // 큐\r\n    uint256 private _head;\r\n    uint256 private _tail;\r\n\r\n    address public owner;\r\n\r\n    uint256 constant internal BLOCK_LIMIT = 256; // 블록 해쉬 제한\r\n    uint256 constant internal BET_BLOCK_INTERVAL = 3; // +3번 블록으로 고정\r\n    uint256 constant internal BET_AMOUNT = 5 * 10 ** 15; // 0.005 ETH 배팅 금액 고정\r\n\r\n    uint256 private _pot; // 팟머니\r\n\r\n    // 이벤트 생성\r\n    event BET(uint256, address bettor, uint256 amount, byte challenges, uint256 answerBlockNumber);\r\n\r\n    constructor() public {\r\n        owner = msg.sender;\r\n    }\r\n\r\n    function getSomeValue() public pure returns (uint256 value) {\r\n        return 5;\r\n    }\r\n\r\n    // 스마트 컨트랙트에 있는 변수의 값을 조회하기 위해서는 view 키워드가 필요\r\n    function getPot() public view returns (uint256 pot) {\r\n        return _pot;\r\n    }\r\n\r\n    // 배팅 함수 - 배팅한 값을 큐에 저장\r\n    /*\r\n     * @dev 배팅 수행, 유저는 0.005ETH룰 보내면서 1byte 배팅 글자를 전달\r\n     * 큐에 저장된 배팅 정보는 이후 distribute 함수에서 해결\r\n     * @param challenges 유저가 배팅하는 글자\r\n     * @return 함수가 잘 수행되었는지 확인하는 bool 값\r\n     */\r\n    // 사용자가 배팅한 값 challenges + ETH를 배팅하기 위한 payable \r\n    function bet(bytes1 challenges) public payable returns (bool result) {\r\n        // 배팅한 돈이 제대로 왔는지 확인\r\n        require(msg.value == BET_AMOUNT, \"Not enough ETH\");\r\n\r\n        // 큐에 배팅 정보를 삽입\r\n        require(pushBet(challenges), \"Fail to add a new Bet Info\");\r\n        \r\n        // 이벤트 로그 출력\r\n        emit BET(_tail - 1, msg.sender, msg.value, challenges, block.number + BET_BLOCK_INTERVAL);\r\n\r\n        return true;\r\n    }\r\n\r\n\r\n    // 검증 함수 - 결과 값을 검증\r\n\r\n    // _bets에 있는 정보를 가져오는 함수\r\n    function getBetInfo(uint256 index) public view returns (uint256 answerBlockNumber, address bettor, bytes1 challenges) {\r\n        BetInfo memory b = _bets[index];\r\n        answerBlockNumber = b.answerBlockNumber;\r\n        bettor = b.bettor;\r\n        challenges = b.challenges;\r\n    }    \r\n\r\n    // _bets 큐에 값을 넣는 함수(PUSH)\r\n    function pushBet(bytes1 challenges) public returns (bool) {\r\n        BetInfo memory b;\r\n        b.bettor = msg.sender;\r\n        b.answerBlockNumber = block.number;\r\n        b.challenges = challenges;\r\n\r\n        _bets[_tail] = b;\r\n        _tail++;\r\n\r\n        return true;\r\n    }\r\n\r\n    // _bets 큐에 값을 빼는 함수(POP)\r\n    function popBet(uint256 index) public returns (bool) {\r\n        // delete를 하면 가스가 환불되기 때문에 필요하지 않은 값에 대해서는 delete를 하는 것이 좋음 \r\n        delete _bets[index];\r\n        return true;\r\n    }\r\n\r\n}",
  "sourcePath": "C:/Users/HanaTI/Desktop/Git/Study/Blockchain/lottery-smart-contract/contracts/Lottery.sol",
  "compiler": {
    "name": "solc",
    "version": "0.5.0+commit.1d4f565a.Emscripten.clang"
  },
  "schemaVersion": "3.0.1",
  "updatedAt": "2023-07-03T08:45:29.848Z",
  "devdoc": {
    "methods": {}
  },
  "userdoc": {
    "methods": {}
  }
}